:020000040000FA
:0400000090EF0DF080
:10060000003F065B4F666D7D077F6F777C395E79B3
:1006100071554C44525358414259734E6F726D613B
:100620006C2F466F7274652F457874726100457344
:10063000636F6C6861203120636166653A004C61CC
:10064000747465204D616363686961746F00382D4F
:100650004E616F20202020362D53696D0051756545
:1006600072206163756361723F3F0043616665207C
:10067000457870726573736F00302D4E20312D46B2
:1006800020322D45460043616665206361736569CC
:10069000726F0043617070756363696E6F005065BF
:1006A000677565203A200046617A656E646F3A008E
:1006B00045782E466F727465004E6F726D616C00E6
:0906C000432F4100532F410000BB
:1006CA0026BE73EF03F0265007E1080E255CD8B06A
:1006DA0071EF03F073EF03F09DEF03F0275028103A
:1006EA00D8B47AEF03F07CEF03F08CEF03F025C067
:1006FA0029F0010E2A6E292A85EF03F0D8902A36AE
:10070A00292E83EF03F02A5080128BEF04F025C0C4
:10071A0029F0010E2A6E292A95EF03F0D8902A367D
:10072A00292E93EF03F02A50FF0A80168BEF04F06C
:10073A0026BEABEF03F0265007E1100E255CD8B0B9
:10074A00A9EF03F0ABEF03F0D9EF03F0F80E25267B
:10075A00FF0E262227502810D8B4B6EF03F0B8EFC0
:10076A0003F0C8EF03F025C029F0010E2A6E292AEA
:10077A00C1EF03F0D8902A36292EBFEF03F02A5092
:10078A0081128BEF04F025C029F0010E2A6E292A66
:10079A00D1EF03F0D8902A36292ECFEF03F02A5052
:1007AA00FF0A81168BEF04F026BEE7EF03F026500E
:1007BA0007E1180E255CD8B0E5EF03F0E7EF03F088
:1007CA0015EF04F0F00E2526FF0E262227502810DA
:1007DA00D8B4F2EF03F0F4EF03F004EF04F025C00D
:1007EA0029F0010E2A6E292AFDEF03F0D8902A3645
:1007FA00292EFBEF03F02A5082128BEF04F025C05A
:10080A0029F0010E2A6E292A0DEF04F0D8902A3613
:10081A00292E0BEF04F02A50FF0A82168BEF04F000
:10082A0026BE23EF04F0265007E1200E255CD8B03F
:10083A0021EF04F023EF04F051EF04F0E80E25262F
:10084A00FF0E262227502810D8B42EEF04F030EFDE
:10085A0004F040EF04F025C029F0010E2A6E292A7F
:10086A0039EF04F0D8902A36292E37EF04F02A50AF
:10087A0083128BEF04F025C029F0010E2A6E292A73
:10088A0049EF04F0D8902A36292E47EF04F02A506F
:10089A00FF0A83168BEF04F026BE5FEF04F02650A2
:1008AA0007E1280E255CD8B05DEF04F05FEF04F095
:1008BA008BEF04F0E00E2526FF0E26222750281083
:1008CA00D8B46AEF04F06CEF04F07CEF04F025C0B2
:1008DA0029F0010E2A6E292A75EF04F0D8902A36DB
:1008EA00292E73EF04F02A5084128BEF04F025C0EE
:1008FA0029F0010E2A6E292A85EF04F0D8902A36AB
:10090A00292E83EF04F02A50FF0A8416120026BE0D
:10091A009AEF04F0265007E1080E255CD8B098EF4C
:10092A0004F09AEF04F0C4EF04F027502810D8B46A
:10093A00A1EF04F0A3EF04F0B3EF04F025C029F00F
:10094A00010E2A6E292AACEF04F0D8902A36292EF5
:10095A00AAEF04F02A509212B2EF05F025C029F04E
:10096A00010E2A6E292ABCEF04F0D8902A36292EC5
:10097A00BAEF04F02A50FF0A9216B2EF05F026BE2B
:10098A00D2EF04F0265007E1100E255CD8B0D0EF64
:10099A0004F0D2EF04F000EF05F027502810D8B485
:1009AA00D9EF04F0DBEF04F0EDEF04F025C029F0F5
:1009BA00F80E2926010E2A6E292AE6EF04F0D890AD
:1009CA002A36292EE4EF04F02A509312B2EF05F0EA
:1009DA0025C029F0F80E2926010E2A6E292AF8EFD9
:1009EA0004F0D8902A36292EF6EF04F02A50FF0A8E
:1009FA009316B2EF05F026BE0EEF05F0265007E17A
:100A0A00180E255CD8B00CEF05F00EEF05F03CEFA0
:100A1A0005F027502810D8B415EF05F017EF05F0A8
:100A2A0029EF05F025C029F0F00E2926010E2A6EBD
:100A3A00292A22EF05F0D8902A36292E20EF05F030
:100A4A002A509412B2EF05F025C029F0F00E29269B
:100A5A00010E2A6E292A34EF05F0D8902A36292E5B
:100A6A0032EF05F02A50FF0A9416B2EF05F026BEBF
:100A7A004AEF05F0265007E1200E255CD8B048EF72
:100A8A0005F04AEF05F078EF05F027502810D8B4A2
:100A9A0051EF05F053EF05F065EF05F025C029F099
:100AAA00E80E2926010E2A6E292A5EEF05F0D89053
:100ABA002A36292E5CEF05F02A509512B2EF05F07E
:100ACA0025C029F0E80E2926010E2A6E292A70EF80
:100ADA0005F0D8902A36292E6EEF05F02A50FF0A23
:100AEA009516B2EF05F026BE86EF05F0265007E10F
:100AFA00280E255CD8B084EF05F086EF05F0B2EF3A
:100B0A0005F027502810D8B48DEF05F08FEF05F0C7
:100B1A00A1EF05F025C029F0E00E2926010E2A6E64
:100B2A00292A9AEF05F0D8902A36292E98EF05F04F
:100B3A002A509612B2EF05F025C029F0E00E2926B8
:100B4A00010E2A6E292AACEF05F0D8902A36292EF2
:100B5A00AAEF05F02A50FF0A961612007FEC09F058
:100B6A00FFEC0DF0100E25182610D8B4BFEF05F0D3
:100B7A00C1EF05F088EF06F0FFEC0DF025C033F069
:100B8A0026C034F02350D8A4CDEF05F0CFEF05F0FE
:100B9A0015EF06F033A0D4EF05F0D6EF05F0E0EF3D
:100BAA0005F011C001F012C002F013C003F014C026
:100BBA0004F0010E236E33A2E5EF05F0E7EF05F02E
:100BCA00F1EF05F00DC001F00EC002F00FC003F006
:100BDA0010C004F0010E236E33A4F6EF05F0F8EF0F
:100BEA0005F002EF06F009C001F00AC002F00BC0DE
:100BFA0003F00CC004F0010E236E33A607EF06F0D3
:100C0A0009EF06F088EF06F005C001F006C002F011
:100C1A0007C003F008C004F0010E236E88EF06F047
:100C2A002304D8A41BEF06F01DEF06F031EF06F0FF
:100C3A0034A022EF06F024EF06F026EF06F0000EAD
:100C4A00236E33AC2BEF06F02DEF06F088EF06F09B
:100C5A00020E236E88EF06F0020E2318D8A438EF8E
:100C6A0006F03AEF06F05DEF06F033A03FEF06F02C
:100C7A0041EF06F045EF06F0010E036E030E236EF8
:100C8A0033A24AEF06F04CEF06F050EF06F0020EE0
:100C9A00036E030E236E33A455EF06F057EF06F0EA
:100CAA0088EF06F0030E036E030E236E88EF06F03C
:100CBA00030E2318D8A464EF06F066EF06F088EF57
:100CCA0006F034A06BEF06F06DEF06F076EF06F053
:100CDA00000E046E02C01BF01C6A040E236E010E85
:100CEA00246E33AC7BEF06F07DEF06F088EF06F05A
:100CFA00010E046E02C01BF01C6A040E236E010E64
:100D0A00246E88EF06F01200E6EC0AF078EC0CF09C
:100D1A0035EC0DF004EC0EF0C8EC0DF0000E266E6A
:100D2A000A0E256EB7EC0DF029EF07F0B3EC05F0CB
:100D3A00010E3E6E42EF07F053EC07F0020E3E6ED4
:100D4A0042EF07F0640E3D64ADEF06F0AFEF06F038
:100D5A00CBEF06F0000E3D6E2450D8B4B7EF06F084
:100D6A00B9EF06F0CBEF06F01B06D8A01C061CBE96
:100D7A00C3EF06F0C1EF06F0CBEF06F0000E246ECB
:100D8A00000E1C6E000E1B6E98EC0BF0000E336EFC
:100D9A00020E286E580E276E1BC025F01CC026F0C6
:100DAA0084EC0AF025C02DF026C02EF0000E306E1D
:100DBA00060E2F6E40EC0BF02D504CEC0CF0010E91
:100DCA00336E000E286E3C0E276E1BC025F01CC029
:100DDA0026F084EC0AF025C02DF026C02EF0000E75
:100DEA00306E0A0E2F6E40EC0BF02D504CEC0CF0CE
:100DFA00020E336E000E286E0A0E276E1BC025F0F7
:100E0A001CC026F084EC0AF025C02DF026C02EF076
:100E1A00000E306E060E2F6E40EC0BF02D504CEC8F
:100E2A000CF0030E336E1BC02DF01CC02EF0000E0A
:100E3A00306E0A0E2F6E40EC0BF02D504CEC0CF07D
:100E4A00000E3E6E42EF07F03E503B6E3C6A3C504D
:100E5A00000AD8B433EF07F025EF07F03B50000A39
:100E6A00D8B49BEF06F0010AD8B4A1EF06F0030A42
:100E7A00D8B4A7EF06F025EF07F02450D8B448EF0E
:100E8A0007F04AEF07F04BEF07F03D2A14EC08F0A1
:100E9A00F7EC0DF093EF06F000EF00F03F50231847
:100EAA00D8B45AEF07F05CEF07F011EF08F0800EA4
:100EBA00D9EC0DF0010ED9EC0DF0C00ED9EC0DF005
:100ECA00010ED9EC0DF0F0EF07F0800ED9EC0DF021
:100EDA002E0E336E060E346EA3EC0CF0C00ED9EC57
:100EEA000DF011EF08F0800ED9EC0DF01AEC0AF0B3
:100EFA00C00ED9EC0DF04E0E336E060E346EA3EC16
:100F0A000CF011EF08F0800ED9EC0DF01B0E336EC9
:100F1A00060E346EA3EC0CF0C00ED9EC0DF0790E6F
:100F2A00336E060E346EA3EC0CF011EF08F0800E4F
:100F3A00D9EC0DF05D0E336E060E346EA3EC0CF098
:100F4A00C00ED9EC0DF04E0E336E060E346EA3ECC5
:100F5A000CF011EF08F0800ED9EC0DF0A70E336EED
:100F6A00060E346EA3EC0CF00304D8A4BFEF07F00E
:100F7A00C1EF07F0C9EF07F0B90E336E060E346EF3
:100F8A00A3EC0CF0E9EF07F0020E0318D8A4D0EF97
:100F9A0007F0D2EF07F0DAEF07F0B30E336E060E62
:100FAA00346EA3EC0CF0E9EF07F0030E0318D8A493
:100FBA00E1EF07F0E3EF07F0E9EF07F0B00E336E69
:100FCA00060E346EA3EC0CF0C00ED9EC0DF01AEC40
:100FDA000AF011EF08F02350396E3A6A3A50000AC3
:100FEA00D8B4FAEF07F011EF08F03950000AD8B474
:100FFA006AEF07F0010AD8B478EF07F0030AD8B409
:10100A0088EF07F0010AD8B49CEF07F0070AD8B4B2
:10101A00B0EF07F011EF08F023C03FF01200000E06
:10102A00266E180E256E000E286E000E276E65ECD1
:10103A0003F0000E266E190E256E000E286E000EA5
:10104A00276E65EC03F0000E266E1A0E256E000E52
:10105A00286E000E276E65EC03F0000E266E1B0E3E
:10106A00256E000E286E000E276E65EC03F0000E4A
:10107A002C6E000E2B6ECEEC0CF0ACEF08F0010ECD
:10108A002024F66EF76A060EF7220800F5502B6E3A
:10109A002C6ACEEC0CF0000E266E180E256E000E91
:1010AA00286E010E276E65EC03F0010E216EC9EF62
:1010BA0008F0010E1F24F66EF76A060EF7220800E2
:1010CA00F5502B6E2C6ACEEC0CF0000E266E190E23
:1010DA00256E000E286E010E276E65EC03F0020ED7
:1010EA00216EC9EF08F0010E1E24F66EF76A060E8D
:1010FA00F7220800F5502B6E2C6ACEEC0CF0000E8D
:10110A00266E1A0E256E000E286E010E276E65ECED
:10111A0003F0030E216EC9EF08F0010E1D24F66ECE
:10112A00F76A060EF7220800F5502B6E2C6ACEECF1
:10113A000CF0000E266E1B0E256E000E286E010E98
:10114A00276E65EC03F0000E216EC9EF08F02150FE
:10115A002E6E2F6A2F50000AD8B4B6EF08F0A8EF07
:10116A0008F02E50000AD8B444EF08F0010AD8B4A7
:10117A005EEF08F0030AD8B478EF08F0010AD8B491
:10118A0092EF08F0A8EF08F0120026BED8EF08F098
:10119A00265007E1080E255CD8B0D6EF08F0D8EF44
:1011AA0008F0ECEF08F025C027F0010E286E272A78
:1011BA00E1EF08F0D8902836272EDFEF08F0285004
:1011CA008014296E2950256E266A7EEF09F026BE04
:1011DA00FAEF08F0265007E1100E255CD8B0F8EFB8
:1011EA0008F0FAEF08F010EF09F025C027F0F80E22
:1011FA002726010E286E272A05EF09F0D8902836EF
:10120A00272E03EF09F028508114296E2950256EE4
:10121A00266A7EEF09F026BE1EEF09F0265007E186
:10122A00180E255CD8B01CEF09F01EEF09F034EF58
:10123A0009F025C027F0F00E2726010E286E272A6E
:10124A0029EF09F0D8902836272E27EF09F02850E1
:10125A008214296E2950256E266A7EEF09F026BE71
:10126A0042EF09F0265007E1200E255CD8B040EF86
:10127A0009F042EF09F058EF09F025C027F0E80E0F
:10128A002726010E286E272A4DEF09F0D890283616
:10129A00272E4BEF09F028508314296E2950256E0A
:1012AA00266A7EEF09F026BE66EF09F0265007E1AE
:1012BA00280E255CD8B064EF09F066EF09F07CEFE0
:1012CA0009F025C027F0E00E2726010E286E272AEE
:1012DA0071EF09F0D8902836272E6FEF09F02850C1
:1012EA008414296E2950256E266A7EEF09F0256836
:1012FA0026681200000E186E000E176E000E326E6F
:10130A00000E316E32BE93EF09F0325009E1050E3C
:10131A00315CD8A093EF09F095EF09F097EF09F047
:10132A00F8EF09F031C02EF0030E2E26010E2F6EB3
:10133A00000E306E2E2AA5EF09F0D8902F363036DF
:10134A002E2EA2EF09F02FC02BF030C02CF0CEECDD
:10135A000CF0000E266E0A0E256ECAEC08F0255017
:10136A002610D8B4BBEF09F0BDEF09F0D0EF09F0B1
:10137A0031C02EF0010E2F6E000E306E2E2AC9EFEC
:10138A0009F0D8902F3630362E2EC6EF09F02F509E
:10139A00171230501812000E266E090E256ECAEC6E
:1013AA0008F025502610D8B4DDEF09F0DFEF09F078
:1013BA00F4EF09F031C02EF0050E2E26010E2F6E25
:1013CA00000E306E2E2AEDEF09F0D8902F36303607
:1013DA002E2EEAEF09F02F50171230501812314A08
:1013EA00322A87EF09F01750151807E11850161816
:1013FA00D8A402EF0AF004EF0AF007EF0AF0220677
:10140A000DEF0AF0010E226E17C015F018C016F083
:10141A002250D8A413EF0AF015EF0AF019EF0AF0D8
:10142A0015C019F016C01AF012000104D8A420EF52
:10143A000AF022EF0AF02AEF0AF0860E336E060E41
:10144A00346EA3EC0CF05DEF0AF0020E0118D8A47A
:10145A0031EF0AF033EF0AF03BEF0AF06B0E336E0E
:10146A00060E346EA3EC0CF05DEF0AF0030E0118C1
:10147A00D8A442EF0AF044EF0AF04CEF0AF0930EB8
:10148A00336E060E346EA3EC0CF05DEF0AF0040E18
:10149A000118D8A453EF0AF055EF0AF05DEF0AF0ED
:1014AA003E0E336E060E346EA3EC0CF05DEF0AF0BE
:1014BA002304D8B463EF0AF065EF0AF083EF0AF069
:1014CA000450D8A46BEF0AF06DEF0AF075EF0AF03A
:1014DA00C40E336E060E346EA3EC0CF083EF0AF0E2
:1014EA000404D8A47BEF0AF07DEF0AF083EF0AF038
:1014FA00C00E336E060E346EA3EC0CF01200000E12
:10150A002A6E28BE8DEF0AF08BEF0AF093EF0AF0ED
:10151A00276C281ED8B0282A010E2A6E26BE9AEFFA
:10152A000AF098EF0AF0A0EF0AF0256C261ED8B050
:10153A00262A010E2A1A000E2C6E000E2B6E275038
:10154A002810D8B4ABEF0AF0ADEF0AF0D5EF0AF0E5
:10155A00010E296EB5EF0AF0D89027362836292AC7
:10156A0028AEBAEF0AF0BCEF0AF0B1EF0AF0D89051
:10157A002B362C362750255C28502658D8A0C8EF81
:10158A000AF0CAEF0AF0CFEF0AF02750255E28507A
:10159A00265A2B80D89028322732292EBCEF0AF0FF
:1015AA002A50D8B4DBEF0AF0DDEF0AF0E1EF0AF0D7
:1015BA002B6C2C1ED8B02C2A2BC025F02CC026F060
:1015CA001200000E266E1C0E256E000E286E000EEE
:1015DA00276E8CEC04F0000E266E1D0E256E000E92
:1015EA00286E000E276E8CEC04F016EC0DF0000E3F
:1015FA00266E0F0E256E4EEC0DF0000E2F6E000EAD
:10160A002E6E030EA4EC0DF0000E266E050E256E4E
:10161A004EEC0DF0000E2F6E000E2E6E030EA4EC93
:10162A000DF0000E266EA00E256E08EC0EF0000ED0
:10163A002F6E000E2E6E030EA4EC0DF0000E266E19
:10164A00A00E256E08EC0EF0000E2F6E000E2E6E08
:10165A00020EA4EC0DF0000E266E0A0E256E4EEC5C
:10166A000DF0280ED9EC0DF00C0ED9EC0DF0010E90
:10167A00D9EC0DF01200000E326E2EBE49EF0BF0BF
:10168A0047EF0BF04FEF0BF02D6C2E1ED8B02E2A21
:10169A00010E326E30BE56EF0BF054EF0BF05AEFDC
:1016AA000BF02F6C301ED8B0302A2F503010D8B41F
:1016BA0061EF0BF063EF0BF087EF0BF0010E316E69
:1016CA006BEF0BF0D8902F363036312A30AE70EFF0
:1016DA000BF072EF0BF067EF0BF02F502D5C3050D0
:1016EA002E58D8A07BEF0BF07DEF0BF081EF0BF0BB
:1016FA002F502D5E30502E5AD89030322F32312E44
:10170A0072EF0BF03250D8B48DEF0BF08FEF0BF075
:10171A0093EF0BF02D6C2E1ED8B02E2A2DC02DF073
:10172A002EC02EF01200000E236E800ED9EC0DF0A2
:10173A00010ED9EC0DF0800ED9EC0DF09E0E336E31
:10174A00060E346EA3EC0CF00304D8A4AFEF0BF032
:10175A00B1EF0BF0B9EF0BF0B90E336E060E346E23
:10176A00A3EC0CF0D9EF0BF0020E0318D8A4C0EFCB
:10177A000BF0C2EF0BF0CAEF0BF0B30E336E060E8E
:10178A00346EA3EC0CF0D9EF0BF0030E0318D8A4B7
:10179A00D1EF0BF0D3EF0BF0D9EF0BF0B00E336EA5
:1017AA00060E346EA3EC0CF0C00ED9EC0DF01AEC58
:1017BA000AF02C0EE2EC0BF01200256E000E266EDB
:1017CA0015EF0CF0000E296E630E2964EFEF0BF093
:1017DA00F1EF0BF0F3EF0BF014EF0CF0000E276EA5
:1017EA00280E2764FBEF0BF0FDEF0BF0FFEF0BF079
:1017FA0011EF0CF0000E286E020E286407EF0CF0B1
:10180A0009EF0CF00BEF0CF00EEF0CF0282A01EFA9
:10181A000CF0272AF5EF0BF0292AE9EF0BF0262A1C
:10182A002550265CD8A01CEF0CF01EEF0CF0E7EF59
:10183A000BF01200316E31C030F0303A0F0E301614
:10184A0030502B6E2C6ACEEC0CF0000E266E1D0E5C
:10185A00256E2EC027F02FC028F065EC03F0F5ECBA
:10186A000CF031C030F00F0E301630502B6E2C6A4F
:10187A00CEEC0CF0000E266E1D0E256E2EC027F043
:10188A002FC028F065EC03F0F5EC0CF01200346E72
:10189A003350D8A453EF0CF055EF0CF057EF0CF07F
:1018AA0034C020F03304D8A45DEF0CF05FEF0CF0E5
:1018BA0061EF0CF034C01FF0020E3318D8A468EFA1
:1018CA000CF06AEF0CF06CEF0CF034C01EF0030E53
:1018DA003318D8A473EF0CF075EF0CF077EF0CF017
:1018EA0034C01DF01200000E266E180E256E000E72
:1018FA00286E000E276E8CEC04F0000E266E190E70
:10190A00256E000E286E000E276E8CEC04F0000E79
:10191A00266E1A0E256E000E286E000E276E8CECAF
:10192A0004F0000E266E1B0E256E000E286E000EA9
:10193A00276E8CEC04F016EC0DF01200000E386ED7
:10194A00000E376EB9EF0CF037503324356E38502D
:10195A003420366E35C0F6FF36C0F7FF0800F55062
:10196A00E8EC0DF0374A382A37503324356E3850B0
:10197A003420366E35C0F6FF36C0F7FF0800F55042
:10198A000009D8A4CBEF0CF0CDEF0CF0A9EF0CF0C6
:10199A001200000E266E080E256E000E286E000E2E
:1019AA00276E65EC03F0000E2D6E000E266E1E0EDD
:1019BA00256E800E2B14276E286A65EC03F07BECEB
:1019CA000DF0D8902B362C362D2A070E2D64F0EF09
:1019DA000CF0F2EF0CF0DAEF0CF066EC0DF01200FE
:1019EA00000E266E1C0E256E000E286E010E276E46
:1019FA0065EC03F0000E266E050E256E08EC0EF05F
:101A0A00000E266E1C0E256E000E286E000E276E26
:101A1A0065EC03F0000E266E050E256E08EC0EF03E
:101A2A001200000E266E1F0E256E000E286E000E86
:101A3A00276E8CEC04F0000E266E080E256E000E42
:101A4A00286E000E276E8CEC04F0000E266E1E0E19
:101A5A00256E000E286E000E276E8CEC04F0120024
:101A6A0016EC0DF0000E266E0A0E256E000E286E7C
:101A7A00010E276E8CEC04F0000E266E090E256E00
:101A8A00000E286E010E276E8CEC04F00C0EC16E4F
:101A9A001200000E296E000E286E56EF0DF0284A2D
:101AAA00292A2550285C2950800A276E2650800A48
:101ABA002758D8A063EF0DF065EF0DF054EF0DF045
:101ACA001200000E266E1F0E256E000E286E010EE5
:101ADA00276E65EC03F0000E266E1F0E256E000EB3
:101AEA00286E000E276E65EC03F01200000E266EBB
:101AFA00080E256E000E286E010E276E65EC03F0A7
:101B0A00000E266E080E256E000E286E000E276E39
:101B1A0065EC03F01200120EF66E1C0EF76E000E44
:101B2A00F86E0900F5CF3FF000EE01F0240EEE6AE0
:101B3A00E806FDE1000EF86E000189EF06F0306E4E
:101B4A0030C02BF02C6ACEEC0CF0000E266E1D0E67
:101B5A00256E2EC027F02FC028F065EC03F0F5ECB7
:101B6A000CF01200D8902534276E2634286E271ED2
:101B7A00281E320E275E000E285A2850D76E27C01C
:101B8A00D6FFF2941200010E116E370E126E020E7B
:101B9A000D6E280E0E6E030E096E5A0E0A6E040E94
:101BAA00056E780E066E1200326E000E2F6E000E53
:101BBA002E6E32501FEC0CF0000E266E020E256EB1
:101BCA004EEC0DF01200326E000E2F6E010E2E6ECC
:101BDA0032501FEC0CF0000E266E500E256E08ECEB
:101BEA000EF01200F2A4FCEF0DF0FEEF0DF0F7EF8D
:101BFA000DF0120019C025F01AC026F01200080EC6
:091C0A00D56ED58E120012000403
:020000040020DA
:08000000FFFFFFFFFFFFFFFF00
:020000040030CA
:0E000000FF071F1FFF8385FF0FC00FE00F409B
:00000001FF
